:020000040800F2
:100000000020002051140008BD080008C1080008A5
:1000100000000000000000000000000000000000E0
:10002000000000000000000000000000C5080008FB
:100030000000000000000000C9080008CD0800080A
:10004000A1140008A1140008A1140008A1140008BC
:10005000A1140008A1140008A1140008A1140008AC
:10006000A1140008A1140008A1140008A11400089C
:10007000A1140008A1140008A1140008A11400088C
:10008000A1140008D108000800000000A114000815
:10009000A1140008A1140008A1140008A11400086C
:1000A000A1140008A1140008A1140008A11400085C
:1000B000A114000800000000A114000800000000C6
:1000C000054B0648033310B51B1A062B03D9044B06
:1000D000002B00D0984710BD680000206800002069
:1000E000000000000648074910B5091A8910CB0F17
:1000F0005918491003D0044B002B00D0984710BD6D
:1001000068000020680000200000000010B5074CC7
:100110002378002B09D1FFF7D3FF054B002B02D02A
:10012000044800E000BF0123237010BD68000020D8
:1001300000000000A4140008094B10B5002B03D0E8
:100140000849094800E000BF08480368002B02D1B5
:10015000FFF7C8FF10BD064B002BF9D09847F7E713
:10016000000000006C000020A414000868000020BB
:1001700000000000014B18687047C04600000020D6
:1001800070B50D4E0D4D0024AD1BAD1005D0A30074
:10019000F35801349847A542F9D101F083F9084E8C
:1001A000084D0024AD1BAD1005D0A300F358013459
:1001B0009847A542F9D170BD141500081415000820
:1001C0001415000818150008F0B505000F2A2FD9DE
:1001D0000B0003439B0734D116000C000300103EB4
:1001E000350901352D01451927681F6067685F6073
:1001F000A7689F60E7681034DF6010339D42F3D139
:100200000F239E431036851989191340032B1AD9E1
:100210001E1F0023B4080134A400CF58EF5004334C
:10022000A342FAD10324A643331D2240C918ED1876
:10023000002A05D00023CC5CEC5401339342FAD160
:10024000F0BD0500F6E71A00F2E7C046F0B58307F7
:1002500043D0541E002A3FD0CEB20200032502E054
:100260001A00013C38D3531C16702B42F8D1032CD2
:100270002AD9FF220A40150215432A0415430F2CE0
:1002800014D927001A00103F3E09013636019E1985
:10029000156055609560D56010329642F8D10F22F6
:1002A00097431037DB191440032C0DD91A00271F70
:1002B000BE080136B6009E1920C2B242FCD103220C
:1002C00097430437DB191440002C05D0C9B21C1920
:1002D000197001339C42FBD1F0BD14000300C6E746
:1002E000002243088B4274D303098B425FD3030A75
:1002F0008B4244D3030B8B4228D3030C8B420DD388
:10030000FF22090212BA030C8B4202D31212090215
:1003100065D0030B8B4219D300E0090AC30B8B4253
:1003200001D3CB03C01A5241830B8B4201D38B0301
:10033000C01A5241430B8B4201D34B03C01A5241A6
:10034000030B8B4201D30B03C01A5241C30A8B42E9
:1003500001D3CB02C01A5241830A8B4201D38B02D4
:10036000C01A5241430A8B4201D34B02C01A524178
:10037000030A8B4201D30B02C01A5241CDD2C309EA
:100380008B4201D3CB01C01A524183098B4201D366
:100390008B01C01A524143098B4201D34B01C01A51
:1003A000524103098B4201D30B01C01A5241C308C9
:1003B0008B4201D3CB00C01A524183088B4201D338
:1003C0008B00C01A524143088B4201D34B00C01A24
:1003D0005241411A00D20146524110467047FFE790
:1003E00001B5002000F0F0F802BDC0460029F7D0AA
:1003F00076E7704703460B437FD4002243088B42C5
:1004000074D303098B425FD3030A8B4244D3030B9B
:100410008B4228D3030C8B420DD3FF22090212BA60
:10042000030C8B4202D31212090265D0030B8B42DC
:1004300019D300E0090AC30B8B4201D3CB03C01AC6
:100440005241830B8B4201D38B03C01A5241430BA1
:100450008B4201D34B03C01A5241030B8B4201D391
:100460000B03C01A5241C30A8B4201D3CB02C01AFC
:100470005241830A8B4201D38B02C01A5241430A74
:100480008B4201D34B02C01A5241030A8B4201D363
:100490000B02C01A5241CDD2C3098B4201D3CB010A
:1004A000C01A524183098B4201D38B01C01A5241B9
:1004B00043098B4201D34B01C01A524103098B42BD
:1004C00001D30B01C01A5241C3088B4201D3CB00A8
:1004D000C01A524183088B4201D38B00C01A52418B
:1004E00043088B4201D34B00C01A5241411A00D23B
:1004F00001465241104670475DE0CA0F00D04942A4
:10050000031000D34042534000229C4603098B4213
:100510002DD3030A8B4212D3FC22890112BA030A9B
:100520008B420CD3890192118B4208D3890192111D
:100530008B4204D389013AD0921100E08909C309A2
:100540008B4201D3CB01C01A524183098B4201D3A4
:100550008B01C01A524143098B4201D34B01C01A8F
:10056000524103098B4201D30B01C01A5241C30807
:100570008B4201D3CB00C01A524183088B4201D376
:100580008B00C01A5241D9D243088B4201D34B0091
:10059000C01A5241411A00D20146634652415B10D3
:1005A000104601D34042002B00D5494270476346B4
:1005B0005B1000D3404201B5002000F005F802BDF9
:1005C0000029F8D016E770477047C046F8B5802676
:1005D0008023B6003700084C5B00A662A36280252A
:1005E0006D00A761C820A56100F050FBA662C8207D
:1005F000A56200F04BFBF2E7000800480121234A06
:1006000010B513680B43136013681942FCD0204BDC
:100610001A681143196002211A681142FCD0F821AE
:100620001A688A4378390A431A605A68194911408E
:10063000A02292030A430F215A60DA6A8A43DA62DF
:100640008022196852040A4380211A60104A8904E2
:1006500013680B42FCD0F02153688B4353605368FE
:100660000D490B400321536053688B4301390B4301
:1006700053600C2206494B681340082BFBD10748F6
:1006800000F0F4FA054800F017FB10BD002002400E
:1006900000100240FFFFC2FFFFF8FFFF006CDC020A
:1006A00030B501248021304B83B09A69490522433B
:1006B0009A619A6922400192019ADA690A43DA61E1
:1006C000DB690B400093009BFFF798FF00F05AF89E
:1006D00000F0C8F900F00CF900F06EFE431C41D0A8
:1006E000224B234D1A68A2431A608022D20511685A
:1006F000A14311600221494219611161DA68144372
:10070000DC6000F0E3FD00F021FE1A4A1A490020E7
:1007100000F040FC174A1849012000F03BFC154A44
:100720001549022000F036FCFA20C00000F0AEFAB5
:10073000104A1249002000F02DFC0E4A0F490120FA
:1007400000F028FC80240B4A0C49022000F022FC17
:100750006400AC610A4800F099FAAC62084800F005
:1007600095FAF6E7FFF732FF001002400010004054
:100770000008004840420F001408E8FFECF717009B
:10078000DC050000F0B5DE4657464E4645460823D8
:10079000E0B58BB002AF0822002138009A46FFF77F
:1007A00055FD1822002104A8FFF750FD8020404B82
:1007B0000003596901240143596180215A69890262
:1007C00002400192019A5A693A4D0A435A615B69A3
:1007D00028000B400093009B0223AC619946AB625A
:1007E0000233AB629B465346AB62F833AB620133D4
:1007F000FF33AB6204A904940594089400F06AF9ED
:100800004B46049301330026984606934B4604A9B1
:10081000280008930594079600F05CF95B46049362
:10082000434606934B4604A928000893059407966F
:1008300000F050F953460493434606934B4604A9EF
:10084000280008930594079600F044F9802304A932
:100850005B0028000493059406960796089600F01E
:1008600039F9802304A99B00280004930594069677
:100870000796089600F02EF90F210F4A380093686A
:100880008B43936090234146DB05DA688A43DA6044
:100890001A688A431A6002943C717C71BC7100F042
:1008A00091F90BB03CBC90469946A246AB46F0BDD0
:1008B000001002400008004800000140FEE7C0466A
:1008C000FEE7C0467047C0467047C0467047C04606
:1008D000054B10B51A69D20704D5022252421A619B
:1008E00000F090FB10BDC046001000407047C046AD
:1008F000F0B5D6464F464646C0B596B003AD142275
:1009000000212800FFF7A2FC202200210EA8FFF7FB
:100910009DFC1822002108A8FFF798FC01234D4EEA
:100920008024F269E4051A43F261F2692900134058
:100930000293029B2F2320002B80263BAB6000F00C
:10094000C1F980222368924693432360A369783AD1
:1009500013430025A3616023904601210EAA2000C5
:100960000E930F9510951195129500F005FA04223B
:10097000A36991469343A3618023A2691B0113439A
:10098000A3610EAA102120000F95109500F0F4F934
:10099000A369314A802113404246304FA3617B68EE
:1009A000490013437B600EAA20000F95109500F0BC
:1009B000E3F94A467B688021934342467B60236883
:1009C000890293431343236063686832934352461A
:1009D0006360A36893434246A360A3699343A36102
:1009E000A3691F4A13404246A3617B6802249343D4
:1009F0007B60726903270A437261736990260B401A
:100A0000F605019308A93000019B089409940A9700
:100A10000B950C940D9400F05DF84B4608A930003E
:100A2000089309940A970B950C940D9400F052F8D2
:100A3000202308A93000089309940A970B950C9479
:100A40000D9400F047F816B01CBC90469946A2469B
:100A5000F0BDC04600100240FFFBFFFF1800004041
:100A6000FFF7FFFF10B586B01422002101A8FFF7A1
:100A7000EDFB1023124A1348D169134C1943D1617D
:100A8000C421D269890013400093009B0F4B5A5830
:100A900002405A50802292021A600D4B01A9200098
:100AA000039300F00FF980227021236893432360A1
:100AB00063688B436360A3689343A36006B010BD73
:100AC00000100240FF00FFFF0010004000E100E0C6
:100AD000BF1200000123F0B5DE4657464E4645469C
:100AE0000C689B46E343E0B583B0019100229C462D
:100AF000002C18D151E05B431E00C5685B00A9467D
:100B00009B19DF43019B1D694B4675433B401D43C9
:100B1000C56045466E4303683B4033430360230092
:100B20000132D34039D05B4693402340F7D001993E
:100B30004D68A846013D012DDDD81E0081685E4349
:100B40008A4675000199AD19EF438D68514675438A
:100B500039400D436146856045680D400199C9687B
:100B600061430D434560C1688A4601990D6951464C
:100B7000754339400D434146C5600229C9D1FF2B59
:100B800013D835007543036A2901491B8B4301992A
:100B900049694D432B430362BBE7002003B03CBCD3
:100BA00090469946A246AB46F0BD1B0A5B435B43A9
:100BB000456A1901C91A8D43019949694B432B4371
:100BC0004362A6E702790300002A1CD000680028CF
:100BD00018D05A79012A35D0002A1FD0022A2FD1E5
:100BE000214A11680143116051680143516000229C
:100BF0009B79002B22D0022B19D0032B2FD0012B55
:100C000024D0012070470368174ADB431168002095
:100C10001940116051680B405360F3E7124A516864
:100C2000814351601168014311600022E0E70E4BDF
:100C3000996881439960D9680843D8601000E1E75A
:100C40000122D5E7084A11688143CCE7064BD968F1
:100C50008143D9609968084398601000D2E7024B3D
:100C600099680143E6E7C04600040140FA2110B547
:100C70008900FFF735FB0022034B013858609A606A
:100C800005321A6010BDC04610E000E0094A82B08B
:100C900013680193019B431C591E8B418021C0188E
:100CA000490213680B42FCD001380028F9D102B088
:100CB0007047C04610E000E0014B18607047C04626
:100CC00064000020254A036890421DD08022D2058E
:100CD000904229D0224A904226D0224A904237D0D0
:100CE000214A904214D0214A904211D0204A904289
:100CF0000ED003608B68C3620B8883620122436954
:100D00001343436100207047702293434A681343A2
:100D1000184A1340CA68134303608B68C3620B8888
:100D200083620B690363E9E7702293434A681343C4
:100D3000104A1340CA68134303608B68C3620B8870
:100D400083620A4B9842ECD0094B9842E9D0D5E730
:100D5000084A1340CA681343CBE7C046002C014041
:100D600000040040002000400040014000440140D9
:100D700000480140FFFCFFFF70B5102900D183E05F
:100D80005AD980235B0099422FD080235B0199427E
:100D900078D1016A734E744C31400162036A456830
:100DA000C1692140146824020C4370491940136939
:100DB0001B030B435168334009030B436C498842C2
:100DC00000D19EE06B49884200D19AE06A4988428E
:100DD00000D196E06949884200D192E0D26845602E
:100DE000C4610264036200204DE07324016A644E12
:100DF00031400162036A4168C569A543146825430F
:100E0000604C1C4013691B02234354683340240286
:100E10002343574CA0425FD0564CA0425CD0564C66
:100E2000A04259D0554CA04256D0D2684160C5610D
:100E3000C2630362002026E0012923D17326036ADE
:100E40008B430362036A45688469B443166834437C
:100E50000226B343166933438B4351680B4344491D
:100E600088426AD04349884267D04349884264D067
:100E70004249884261D0D26845608461426303621E
:100E8000002000E0012070BD036A374D8B430362F0
:100E9000036A466884692C4015682D022C4320257E
:100EA000AB431D0013691B012B438B4351680D019C
:100EB0002F492B4388422AD02E49884227D02E49D9
:100EC000884224D02D49884221D0D268466084616E
:100ED000826303620020D6E72B4E2C4C1E405369E0
:100EE0009B0233431F4E234094680E409169A40235
:100EF000234309011D4C31432140D469660131432C
:100F000093E723490D40916989010D4366E78021EC
:100F10008B431D00536940399B012B438B439168E0
:100F20008D011A492B430E409169174D89003143B9
:100F30002940D569EE000E43C7E708218B4319000D
:100F400053699B000B4304218B43916889000B4339
:100F50000B490D4091690D430A490D40D169490083
:100F60000D4388E7FFEFFFFFFF8CFFFFFFDFFFFF71
:100F7000002C014000400140004401400048014075
:100F8000FFFEFFFFFFFDFFFFFFF7FFFFFFFBFFFF80
:100F9000FFBFFFFF70B5CB170500C81882B00C006B
:100FA000584011491600FFF725FA6B4601001880DA
:100FB0003000FFF795F90D4B0D495843FFF790F9B5
:100FC0006A466B46117901225880E3171B1B914337
:100FD000DB0F19436B4628001971694600F0BEF912
:100FE000002002B070BDC0465B3D0000102700002D
:100FF00040420F00036A82B08B430090019103626C
:1010000002B07047F0B5DE4657464E464546E0B55D
:10101000AA4B83B01B78002B13D080230824DB0558
:101020009A69A748A2439A6100225A6399690140CC
:10103000A44899619A634168A1434160DA639F4B78
:101040001A70002400219D4BA4461B7808349B464F
:101050009D4BA1461A00013418008A46A04648322A
:101060001488002C07D0DD6D57880135BD4213D0A0
:10107000002D11D0DD65013106320433183003290B
:10108000EED15346002B00D013E103B03CBC904698
:101090009946A246AB46F0BD6546013CDD65456814
:1010A0001480046801295CD002292ED0012D00D1C2
:1010B000A1E0042D00D19EE0102D00D1CFE0402D05
:1010C00000D198E080267600B54200D1ADE08027BF
:1010D000FF00BD4200D1A8E01826E769B346784E6C
:1010E000A34437404646E761666380263601B24630
:1010F00004275F443E680197B34656465F463E4329
:10110000019F3E606646666354E0012D59D0042D70
:1011100057D0102D00D1B0E0402D52D0802676005F
:10112000B54200D18EE08027FF00BD4200D189E0AA
:101130001826E769B346624EA34437404646E76146
:10114000E66380263601B24604275F443E68019775
:10115000B34656465F463E43019F3E606646E663A1
:1011600028E0012D3AD0042D38D0102D00D192E086
:10117000402D33D080267600B54249D08027FF002D
:10118000BD4245D01826E769B3464D4EA3443740CB
:101190004646E761A66380263601B24604275F44CF
:1011A0003E680197B34656465F463E43019F3E6008
:1011B0006646A663276A3D4325620124A246A346EC
:1011C00059E71826B3464E46A769A344B743464697
:1011D000A761E66308260027B246B6E71826B3469D
:1011E0004E46A769A344B7434646A761A6630826AF
:1011F0000027B246D3E71826B3464E46A769A34454
:10120000B7434646A761666308260027B24670E7E3
:101210001826B3464E46E769A344B7434646E761FE
:10122000A66308260427B246B9E71826B3464E46F9
:10123000E769A344B7434646E76166630826042787
:10124000B24656E71826B3464E46E769A344B7436D
:101250004646E761E66308260427B24675E7182686
:10126000A769B346164EA34437404646A761666356
:1012700080263601B24600273BE71826A769B34609
:101280000F4EA34437404646A761E66380263601E9
:10129000B246002759E71826A769B346084EA3446B
:1012A00037404646A761A66380263601B24600272E
:1012B00075E75B46014A1370E7E6C04684000020EC
:1012C000FFF7FFFF18000040880000200121024ABC
:1012D00013680B43136070470010004010B5094CB1
:1012E000482200212000FEF7B1FF20001222002139
:1012F0004830FEF7ABFF01235B42E365236663667C
:1013000010BDC0468800002010B502280CD8002966
:1013100011D043001B180B48DB00C0181CC91CC0AF
:101320001CC91CC0002010BDFEF724FF222303604F
:1013300001204042F7E7FEF71DFF1623036001205E
:101340004042F0E78800002000207047024B1A69F5
:101350005B6993627047C04688000020F8B50F00B3
:1013600006004500124C2D1868002018062248304F
:10137000FEF72AFF3B790F4ADB07DB0FB1005B006A
:101380008A58013B5343ED005BB26519002B0ADD1F
:10139000AB68EA689A61300001231630800020189B
:1013A0005B424360F8BDAB68EA689A62F3E7C04607
:1013B0008800002004150008F0B593B0FFF78EFFF9
:1013C000224B6A46190051C951C251C951C206ACDB
:1013D0001A0021001832C1CAC1C1C1CAC1C10CAEB4
:1013E0003200303383CB83C283CB83C20098019910
:1013F000FFF700FE06986168FFF7FCFD069861683C
:10140000FFF7F8FD80220121D205136800208B43ED
:1014100013606946FFF778FF431C13D021000120B9
:10142000FFF772FF431C0DD031000220FFF76CFF65
:10143000431C07D0FFF788FF013043425841404228
:1014400013B0F0BD01204042FAE7C046BC140008CA
:101450000D4885460D480E490E4A002302E0D45837
:10146000C4500433C4188C42F9D30B4A0B4C0023EC
:1014700001E013600432A242FBD3FFF737FAFEF714
:101480007FFEFFF70DF9FEE700200020000000209E
:10149000680000201C15000868000020F0000020F3
:1014A000FEE70000F8B5C046F8BC08BC9E46704791
:0C14B000F8B5C046F8BC08BC9E4670476A
:1014BC00000000400100000000080048020000008D
:1014CC00000800480100000000000040100000006F
:1014DC00000800480400000000080048010000005B
:1014EC000000004000010000000800480800000057
:1014FC00000800480100000001000000FFFFFFFF92
:08150C00010000004300000093
:041514003901000891
:041518000D010008B9
:10151C00040000200000000000000000000000009B
:10152C0000000000000000000000000000000000AF
:10153C000000000010150008000000000000000072
:10154C00000000000000000000000000000000008F
:10155C00000000000000000000000000000000007F
:10156C00000000000000000000000000000000006F
:08157C000000000000127A00DB
:04000005080014518A
:00000001FF
